{
  "_format": "hh-sol-artifact-1",
  "contractName": "ERC20Token",
  "sourceName": "contracts/ERCToken.sol",
  "abi": [
    {
      "inputs": [
        {
          "internalType": "string",
          "name": "_name",
          "type": "string"
        },
        {
          "internalType": "string",
          "name": "_symbol",
          "type": "string"
        }
      ],
      "stateMutability": "nonpayable",
      "type": "constructor"
    },
    {
      "anonymous": false,
      "inputs": [
        {
          "indexed": true,
          "internalType": "address",
          "name": "owner",
          "type": "address"
        },
        {
          "indexed": true,
          "internalType": "address",
          "name": "spender",
          "type": "address"
        },
        {
          "indexed": false,
          "internalType": "uint256",
          "name": "value",
          "type": "uint256"
        }
      ],
      "name": "Approval",
      "type": "event"
    },
    {
      "anonymous": false,
      "inputs": [
        {
          "indexed": false,
          "internalType": "uint256",
          "name": "",
          "type": "uint256"
        },
        {
          "indexed": false,
          "internalType": "string",
          "name": "",
          "type": "string"
        }
      ],
      "name": "BurnToken",
      "type": "event"
    },
    {
      "anonymous": false,
      "inputs": [
        {
          "indexed": false,
          "internalType": "uint256",
          "name": "",
          "type": "uint256"
        },
        {
          "indexed": false,
          "internalType": "string",
          "name": "",
          "type": "string"
        }
      ],
      "name": "MintMore",
      "type": "event"
    },
    {
      "anonymous": false,
      "inputs": [
        {
          "indexed": true,
          "internalType": "address",
          "name": "previousOwner",
          "type": "address"
        },
        {
          "indexed": true,
          "internalType": "address",
          "name": "newOwner",
          "type": "address"
        }
      ],
      "name": "OwnershipTransferred",
      "type": "event"
    },
    {
      "anonymous": false,
      "inputs": [
        {
          "indexed": true,
          "internalType": "address",
          "name": "from",
          "type": "address"
        },
        {
          "indexed": true,
          "internalType": "address",
          "name": "to",
          "type": "address"
        },
        {
          "indexed": false,
          "internalType": "uint256",
          "name": "value",
          "type": "uint256"
        }
      ],
      "name": "Transfer",
      "type": "event"
    },
    {
      "anonymous": false,
      "inputs": [
        {
          "indexed": false,
          "internalType": "uint256",
          "name": "",
          "type": "uint256"
        },
        {
          "indexed": false,
          "internalType": "address",
          "name": "",
          "type": "address"
        },
        {
          "indexed": false,
          "internalType": "string",
          "name": "",
          "type": "string"
        }
      ],
      "name": "TransferFund",
      "type": "event"
    },
    {
      "inputs": [
        {
          "internalType": "address",
          "name": "owner",
          "type": "address"
        },
        {
          "internalType": "address",
          "name": "spender",
          "type": "address"
        }
      ],
      "name": "allowance",
      "outputs": [
        {
          "internalType": "uint256",
          "name": "",
          "type": "uint256"
        }
      ],
      "stateMutability": "view",
      "type": "function"
    },
    {
      "inputs": [
        {
          "internalType": "address",
          "name": "spender",
          "type": "address"
        },
        {
          "internalType": "uint256",
          "name": "amount",
          "type": "uint256"
        }
      ],
      "name": "approve",
      "outputs": [
        {
          "internalType": "bool",
          "name": "",
          "type": "bool"
        }
      ],
      "stateMutability": "nonpayable",
      "type": "function"
    },
    {
      "inputs": [
        {
          "internalType": "address",
          "name": "account",
          "type": "address"
        }
      ],
      "name": "balanceOf",
      "outputs": [
        {
          "internalType": "uint256",
          "name": "",
          "type": "uint256"
        }
      ],
      "stateMutability": "view",
      "type": "function"
    },
    {
      "inputs": [
        {
          "internalType": "uint256",
          "name": "amount",
          "type": "uint256"
        }
      ],
      "name": "burn",
      "outputs": [],
      "stateMutability": "nonpayable",
      "type": "function"
    },
    {
      "inputs": [
        {
          "internalType": "address",
          "name": "account",
          "type": "address"
        },
        {
          "internalType": "uint256",
          "name": "amount",
          "type": "uint256"
        }
      ],
      "name": "burnFrom",
      "outputs": [],
      "stateMutability": "nonpayable",
      "type": "function"
    },
    {
      "inputs": [],
      "name": "checkOwner",
      "outputs": [
        {
          "internalType": "bool",
          "name": "",
          "type": "bool"
        }
      ],
      "stateMutability": "view",
      "type": "function"
    },
    {
      "inputs": [],
      "name": "decimals",
      "outputs": [
        {
          "internalType": "uint8",
          "name": "",
          "type": "uint8"
        }
      ],
      "stateMutability": "view",
      "type": "function"
    },
    {
      "inputs": [
        {
          "internalType": "address",
          "name": "spender",
          "type": "address"
        },
        {
          "internalType": "uint256",
          "name": "subtractedValue",
          "type": "uint256"
        }
      ],
      "name": "decreaseAllowance",
      "outputs": [
        {
          "internalType": "bool",
          "name": "",
          "type": "bool"
        }
      ],
      "stateMutability": "nonpayable",
      "type": "function"
    },
    {
      "inputs": [],
      "name": "getBalance",
      "outputs": [
        {
          "internalType": "uint256",
          "name": "",
          "type": "uint256"
        }
      ],
      "stateMutability": "view",
      "type": "function"
    },
    {
      "inputs": [
        {
          "internalType": "address",
          "name": "spender",
          "type": "address"
        },
        {
          "internalType": "uint256",
          "name": "addedValue",
          "type": "uint256"
        }
      ],
      "name": "increaseAllowance",
      "outputs": [
        {
          "internalType": "bool",
          "name": "",
          "type": "bool"
        }
      ],
      "stateMutability": "nonpayable",
      "type": "function"
    },
    {
      "inputs": [
        {
          "internalType": "uint256",
          "name": "amount",
          "type": "uint256"
        }
      ],
      "name": "mint",
      "outputs": [],
      "stateMutability": "nonpayable",
      "type": "function"
    },
    {
      "inputs": [],
      "name": "name",
      "outputs": [
        {
          "internalType": "string",
          "name": "",
          "type": "string"
        }
      ],
      "stateMutability": "view",
      "type": "function"
    },
    {
      "inputs": [],
      "name": "owner",
      "outputs": [
        {
          "internalType": "address",
          "name": "",
          "type": "address"
        }
      ],
      "stateMutability": "view",
      "type": "function"
    },
    {
      "inputs": [],
      "name": "renounceOwnership",
      "outputs": [],
      "stateMutability": "nonpayable",
      "type": "function"
    },
    {
      "inputs": [],
      "name": "symbol",
      "outputs": [
        {
          "internalType": "string",
          "name": "",
          "type": "string"
        }
      ],
      "stateMutability": "view",
      "type": "function"
    },
    {
      "inputs": [],
      "name": "totalSupply",
      "outputs": [
        {
          "internalType": "uint256",
          "name": "",
          "type": "uint256"
        }
      ],
      "stateMutability": "view",
      "type": "function"
    },
    {
      "inputs": [
        {
          "internalType": "address",
          "name": "to",
          "type": "address"
        },
        {
          "internalType": "uint256",
          "name": "amount",
          "type": "uint256"
        }
      ],
      "name": "transfer",
      "outputs": [
        {
          "internalType": "bool",
          "name": "",
          "type": "bool"
        }
      ],
      "stateMutability": "nonpayable",
      "type": "function"
    },
    {
      "inputs": [
        {
          "internalType": "address",
          "name": "from",
          "type": "address"
        },
        {
          "internalType": "address",
          "name": "to",
          "type": "address"
        },
        {
          "internalType": "uint256",
          "name": "amount",
          "type": "uint256"
        }
      ],
      "name": "transferFrom",
      "outputs": [
        {
          "internalType": "bool",
          "name": "",
          "type": "bool"
        }
      ],
      "stateMutability": "nonpayable",
      "type": "function"
    },
    {
      "inputs": [
        {
          "internalType": "address",
          "name": "_to",
          "type": "address"
        },
        {
          "internalType": "uint256",
          "name": "amount",
          "type": "uint256"
        }
      ],
      "name": "transferFunds",
      "outputs": [],
      "stateMutability": "nonpayable",
      "type": "function"
    },
    {
      "inputs": [
        {
          "internalType": "address",
          "name": "newOwner",
          "type": "address"
        }
      ],
      "name": "transferOwnership",
      "outputs": [],
      "stateMutability": "nonpayable",
      "type": "function"
    }
  ],
  "bytecode": "0x60806040523480156200001157600080fd5b506040516200290538038062002905833981810160405281019062000037919062000464565b818181600390805190602001906200005192919062000342565b5080600490805190602001906200006a92919062000342565b5050506200008d62000081620000f160201b60201c565b620000f960201b60201c565b620000a83368056bc75e2d63100000620001bf60201b60201c565b33600660006101000a81548173ffffffffffffffffffffffffffffffffffffffff021916908373ffffffffffffffffffffffffffffffffffffffff16021790555050506200078e565b600033905090565b6000600560009054906101000a900473ffffffffffffffffffffffffffffffffffffffff16905081600560006101000a81548173ffffffffffffffffffffffffffffffffffffffff021916908373ffffffffffffffffffffffffffffffffffffffff1602179055508173ffffffffffffffffffffffffffffffffffffffff168173ffffffffffffffffffffffffffffffffffffffff167f8be0079c531659141344cd1fd0a4f28419497f9722a3daafe3b4186f6b6457e060405160405180910390a35050565b600073ffffffffffffffffffffffffffffffffffffffff168273ffffffffffffffffffffffffffffffffffffffff16141562000232576040517f08c379a000000000000000000000000000000000000000000000000000000000815260040162000229906200050f565b60405180910390fd5b62000246600083836200033860201b60201c565b80600260008282546200025a9190620005be565b92505081905550806000808473ffffffffffffffffffffffffffffffffffffffff1673ffffffffffffffffffffffffffffffffffffffff1681526020019081526020016000206000828254620002b19190620005be565b925050819055508173ffffffffffffffffffffffffffffffffffffffff16600073ffffffffffffffffffffffffffffffffffffffff167fddf252ad1be2c89b69c2b068fc378daa952ba7f163c4a11628f55a4df523b3ef8360405162000318919062000531565b60405180910390a362000334600083836200033d60201b60201c565b5050565b505050565b505050565b82805462000350906200065b565b90600052602060002090601f016020900481019282620003745760008555620003c0565b82601f106200038f57805160ff1916838001178555620003c0565b82800160010185558215620003c0579182015b82811115620003bf578251825591602001919060010190620003a2565b5b509050620003cf9190620003d3565b5090565b5b80821115620003ee576000816000905550600101620003d4565b5090565b600062000409620004038462000577565b6200054e565b9050828152602081018484840111156200042257600080fd5b6200042f84828562000625565b509392505050565b600082601f8301126200044957600080fd5b81516200045b848260208601620003f2565b91505092915050565b600080604083850312156200047857600080fd5b600083015167ffffffffffffffff8111156200049357600080fd5b620004a18582860162000437565b925050602083015167ffffffffffffffff811115620004bf57600080fd5b620004cd8582860162000437565b9150509250929050565b6000620004e6601f83620005ad565b9150620004f38262000765565b602082019050919050565b62000509816200061b565b82525050565b600060208201905081810360008301526200052a81620004d7565b9050919050565b6000602082019050620005486000830184620004fe565b92915050565b60006200055a6200056d565b905062000568828262000691565b919050565b6000604051905090565b600067ffffffffffffffff82111562000595576200059462000725565b5b620005a08262000754565b9050602081019050919050565b600082825260208201905092915050565b6000620005cb826200061b565b9150620005d8836200061b565b9250827fffffffffffffffffffffffffffffffffffffffffffffffffffffffffffffffff0382111562000610576200060f620006c7565b5b828201905092915050565b6000819050919050565b60005b838110156200064557808201518184015260208101905062000628565b8381111562000655576000848401525b50505050565b600060028204905060018216806200067457607f821691505b602082108114156200068b576200068a620006f6565b5b50919050565b6200069c8262000754565b810181811067ffffffffffffffff82111715620006be57620006bd62000725565b5b80604052505050565b7f4e487b7100000000000000000000000000000000000000000000000000000000600052601160045260246000fd5b7f4e487b7100000000000000000000000000000000000000000000000000000000600052602260045260246000fd5b7f4e487b7100000000000000000000000000000000000000000000000000000000600052604160045260246000fd5b6000601f19601f8301169050919050565b7f45524332303a206d696e7420746f20746865207a65726f206164647265737300600082015250565b612167806200079e6000396000f3fe608060405234801561001057600080fd5b506004361061012c5760003560e01c806379cc6790116100ad578063a457c2d711610071578063a457c2d71461031f578063a9059cbb1461034f578063cdbce03d1461037f578063dd62ed3e1461039d578063f2fde38b146103cd5761012c565b806379cc67901461028f5780638da5cb5b146102ab57806395d89b41146102c9578063990dc9db146102e7578063a0712d68146103035761012c565b8063313ce567116100f4578063313ce567146101eb578063395093511461020957806342966c681461023957806370a0823114610255578063715018a6146102855761012c565b806306fdde0314610131578063095ea7b31461014f57806312065fe01461017f57806318160ddd1461019d57806323b872dd146101bb575b600080fd5b6101396103e9565b6040516101469190611907565b60405180910390f35b610169600480360381019061016491906115ea565b61047b565b60405161017691906118ec565b60405180910390f35b61018761049e565b6040516101949190611aa9565b60405180910390f35b6101a56104ae565b6040516101b29190611aa9565b60405180910390f35b6101d560048036038101906101d0919061159b565b6104b8565b6040516101e291906118ec565b60405180910390f35b6101f36104e7565b6040516102009190611b5c565b60405180910390f35b610223600480360381019061021e91906115ea565b6104f0565b60405161023091906118ec565b60405180910390f35b610253600480360381019061024e9190611626565b61059a565b005b61026f600480360381019061026a9190611536565b610683565b60405161027c9190611aa9565b60405180910390f35b61028d6106cb565b005b6102a960048036038101906102a491906115ea565b610753565b005b6102b3610773565b6040516102c091906118d1565b60405180910390f35b6102d161079d565b6040516102de9190611907565b60405180910390f35b61030160048036038101906102fc91906115ea565b61082f565b005b61031d60048036038101906103189190611626565b6108b5565b005b610339600480360381019061033491906115ea565b610922565b60405161034691906118ec565b60405180910390f35b610369600480360381019061036491906115ea565b610a0c565b60405161037691906118ec565b60405180910390f35b610387610a2f565b60405161039491906118ec565b60405180910390f35b6103b760048036038101906103b2919061155f565b610aa6565b6040516103c49190611aa9565b60405180910390f35b6103e760048036038101906103e29190611536565b610b2d565b005b6060600380546103f890611ca5565b80601f016020809104026020016040519081016040528092919081815260200182805461042490611ca5565b80156104715780601f1061044657610100808354040283529160200191610471565b820191906000526020600020905b81548152906001019060200180831161045457829003601f168201915b5050505050905090565b600080610486610c25565b9050610493818585610c2d565b600191505092915050565b60006104a933610683565b905090565b6000600254905090565b6000806104c3610c25565b90506104d0858285610df8565b6104db858585610e84565b60019150509392505050565b60006012905090565b6000806104fb610c25565b905061058f818585600160008673ffffffffffffffffffffffffffffffffffffffff1673ffffffffffffffffffffffffffffffffffffffff16815260200190815260200160002060008973ffffffffffffffffffffffffffffffffffffffff1673ffffffffffffffffffffffffffffffffffffffff1681526020019081526020016000205461058a9190611b93565b610c2d565b600191505092915050565b6105a2610c25565b73ffffffffffffffffffffffffffffffffffffffff166105c0610773565b73ffffffffffffffffffffffffffffffffffffffff1614610616576040517f08c379a000000000000000000000000000000000000000000000000000000000815260040161060d906119e9565b60405180910390fd5b610642600660009054906101000a900473ffffffffffffffffffffffffffffffffffffffff1682611105565b7f3ecc25fed8ba0de9a4e747877a57aee821ef04a6d323750c3c63dd699d745dea61066b6104ae565b6040516106789190611b2e565b60405180910390a150565b60008060008373ffffffffffffffffffffffffffffffffffffffff1673ffffffffffffffffffffffffffffffffffffffff168152602001908152602001600020549050919050565b6106d3610c25565b73ffffffffffffffffffffffffffffffffffffffff166106f1610773565b73ffffffffffffffffffffffffffffffffffffffff1614610747576040517f08c379a000000000000000000000000000000000000000000000000000000000815260040161073e906119e9565b60405180910390fd5b61075160006112dc565b565b6107658261075f610c25565b83610df8565b61076f8282611105565b5050565b6000600560009054906101000a900473ffffffffffffffffffffffffffffffffffffffff16905090565b6060600480546107ac90611ca5565b80601f01602080910402602001604051908101604052809291908181526020018280546107d890611ca5565b80156108255780601f106107fa57610100808354040283529160200191610825565b820191906000526020600020905b81548152906001019060200180831161080857829003601f168201915b5050505050905090565b8061085b600660009054906101000a900473ffffffffffffffffffffffffffffffffffffffff16610683565b1061086557600080fd5b61086f8282610a0c565b507f71cea4bdf75fb70137eabdb16db9627fbdb7a633fb6d7522b1509e7d58db0f5c61089a33610683565b836040516108a9929190611ac4565b60405180910390a15050565b6108e1600660009054906101000a900473ffffffffffffffffffffffffffffffffffffffff16826113a2565b7fe4f0d87da6412b62d995c43e7e87ab4314773dd099a4a04fd7b2572f1119702761090a6104ae565b6040516109179190611b00565b60405180910390a150565b60008061092d610c25565b90506000600160008373ffffffffffffffffffffffffffffffffffffffff1673ffffffffffffffffffffffffffffffffffffffff16815260200190815260200160002060008673ffffffffffffffffffffffffffffffffffffffff1673ffffffffffffffffffffffffffffffffffffffff168152602001908152602001600020549050838110156109f3576040517f08c379a00000000000000000000000000000000000000000000000000000000081526004016109ea90611a69565b60405180910390fd5b610a008286868403610c2d565b60019250505092915050565b600080610a17610c25565b9050610a24818585610e84565b600191505092915050565b6000600660009054906101000a900473ffffffffffffffffffffffffffffffffffffffff1673ffffffffffffffffffffffffffffffffffffffff163373ffffffffffffffffffffffffffffffffffffffff161415610a905760019050610aa3565b600660149054906101000a900460ff1690505b90565b6000600160008473ffffffffffffffffffffffffffffffffffffffff1673ffffffffffffffffffffffffffffffffffffffff16815260200190815260200160002060008373ffffffffffffffffffffffffffffffffffffffff1673ffffffffffffffffffffffffffffffffffffffff16815260200190815260200160002054905092915050565b610b35610c25565b73ffffffffffffffffffffffffffffffffffffffff16610b53610773565b73ffffffffffffffffffffffffffffffffffffffff1614610ba9576040517f08c379a0000000000000000000000000000000000000000000000000000000008152600401610ba0906119e9565b60405180910390fd5b600073ffffffffffffffffffffffffffffffffffffffff168173ffffffffffffffffffffffffffffffffffffffff161415610c19576040517f08c379a0000000000000000000000000000000000000000000000000000000008152600401610c1090611969565b60405180910390fd5b610c22816112dc565b50565b600033905090565b600073ffffffffffffffffffffffffffffffffffffffff168373ffffffffffffffffffffffffffffffffffffffff161415610c9d576040517f08c379a0000000000000000000000000000000000000000000000000000000008152600401610c9490611a49565b60405180910390fd5b600073ffffffffffffffffffffffffffffffffffffffff168273ffffffffffffffffffffffffffffffffffffffff161415610d0d576040517f08c379a0000000000000000000000000000000000000000000000000000000008152600401610d0490611989565b60405180910390fd5b80600160008573ffffffffffffffffffffffffffffffffffffffff1673ffffffffffffffffffffffffffffffffffffffff16815260200190815260200160002060008473ffffffffffffffffffffffffffffffffffffffff1673ffffffffffffffffffffffffffffffffffffffff168152602001908152602001600020819055508173ffffffffffffffffffffffffffffffffffffffff168373ffffffffffffffffffffffffffffffffffffffff167f8c5be1e5ebec7d5bd14f71427d1e84f3dd0314c0f7b2291e5b200ac8c7c3b92583604051610deb9190611aa9565b60405180910390a3505050565b6000610e048484610aa6565b90507fffffffffffffffffffffffffffffffffffffffffffffffffffffffffffffffff8114610e7e5781811015610e70576040517f08c379a0000000000000000000000000000000000000000000000000000000008152600401610e67906119a9565b60405180910390fd5b610e7d8484848403610c2d565b5b50505050565b600073ffffffffffffffffffffffffffffffffffffffff168373ffffffffffffffffffffffffffffffffffffffff161415610ef4576040517f08c379a0000000000000000000000000000000000000000000000000000000008152600401610eeb90611a29565b60405180910390fd5b600073ffffffffffffffffffffffffffffffffffffffff168273ffffffffffffffffffffffffffffffffffffffff161415610f64576040517f08c379a0000000000000000000000000000000000000000000000000000000008152600401610f5b90611929565b60405180910390fd5b610f6f838383611502565b60008060008573ffffffffffffffffffffffffffffffffffffffff1673ffffffffffffffffffffffffffffffffffffffff16815260200190815260200160002054905081811015610ff5576040517f08c379a0000000000000000000000000000000000000000000000000000000008152600401610fec906119c9565b60405180910390fd5b8181036000808673ffffffffffffffffffffffffffffffffffffffff1673ffffffffffffffffffffffffffffffffffffffff16815260200190815260200160002081905550816000808573ffffffffffffffffffffffffffffffffffffffff1673ffffffffffffffffffffffffffffffffffffffff16815260200190815260200160002060008282546110889190611b93565b925050819055508273ffffffffffffffffffffffffffffffffffffffff168473ffffffffffffffffffffffffffffffffffffffff167fddf252ad1be2c89b69c2b068fc378daa952ba7f163c4a11628f55a4df523b3ef846040516110ec9190611aa9565b60405180910390a36110ff848484611507565b50505050565b600073ffffffffffffffffffffffffffffffffffffffff168273ffffffffffffffffffffffffffffffffffffffff161415611175576040517f08c379a000000000000000000000000000000000000000000000000000000000815260040161116c90611a09565b60405180910390fd5b61118182600083611502565b60008060008473ffffffffffffffffffffffffffffffffffffffff1673ffffffffffffffffffffffffffffffffffffffff16815260200190815260200160002054905081811015611207576040517f08c379a00000000000000000000000000000000000000000000000000000000081526004016111fe90611949565b60405180910390fd5b8181036000808573ffffffffffffffffffffffffffffffffffffffff1673ffffffffffffffffffffffffffffffffffffffff16815260200190815260200160002081905550816002600082825461125e9190611be9565b92505081905550600073ffffffffffffffffffffffffffffffffffffffff168373ffffffffffffffffffffffffffffffffffffffff167fddf252ad1be2c89b69c2b068fc378daa952ba7f163c4a11628f55a4df523b3ef846040516112c39190611aa9565b60405180910390a36112d783600084611507565b505050565b6000600560009054906101000a900473ffffffffffffffffffffffffffffffffffffffff16905081600560006101000a81548173ffffffffffffffffffffffffffffffffffffffff021916908373ffffffffffffffffffffffffffffffffffffffff1602179055508173ffffffffffffffffffffffffffffffffffffffff168173ffffffffffffffffffffffffffffffffffffffff167f8be0079c531659141344cd1fd0a4f28419497f9722a3daafe3b4186f6b6457e060405160405180910390a35050565b600073ffffffffffffffffffffffffffffffffffffffff168273ffffffffffffffffffffffffffffffffffffffff161415611412576040517f08c379a000000000000000000000000000000000000000000000000000000000815260040161140990611a89565b60405180910390fd5b61141e60008383611502565b80600260008282546114309190611b93565b92505081905550806000808473ffffffffffffffffffffffffffffffffffffffff1673ffffffffffffffffffffffffffffffffffffffff16815260200190815260200160002060008282546114859190611b93565b925050819055508173ffffffffffffffffffffffffffffffffffffffff16600073ffffffffffffffffffffffffffffffffffffffff167fddf252ad1be2c89b69c2b068fc378daa952ba7f163c4a11628f55a4df523b3ef836040516114ea9190611aa9565b60405180910390a36114fe60008383611507565b5050565b505050565b505050565b60008135905061151b81612103565b92915050565b6000813590506115308161211a565b92915050565b60006020828403121561154857600080fd5b60006115568482850161150c565b91505092915050565b6000806040838503121561157257600080fd5b60006115808582860161150c565b92505060206115918582860161150c565b9150509250929050565b6000806000606084860312156115b057600080fd5b60006115be8682870161150c565b93505060206115cf8682870161150c565b92505060406115e086828701611521565b9150509250925092565b600080604083850312156115fd57600080fd5b600061160b8582860161150c565b925050602061161c85828601611521565b9150509250929050565b60006020828403121561163857600080fd5b600061164684828501611521565b91505092915050565b61165881611c1d565b82525050565b61166781611c2f565b82525050565b600061167882611b77565b6116828185611b82565b9350611692818560208601611c72565b61169b81611d35565b840191505092915050565b60006116b3602383611b82565b91506116be82611d46565b604082019050919050565b60006116d6602283611b82565b91506116e182611d95565b604082019050919050565b60006116f9602683611b82565b915061170482611de4565b604082019050919050565b600061171c602283611b82565b915061172782611e33565b604082019050919050565b600061173f601a83611b82565b915061174a82611e82565b602082019050919050565b6000611762601d83611b82565b915061176d82611eab565b602082019050919050565b6000611785602683611b82565b915061179082611ed4565b604082019050919050565b60006117a8602083611b82565b91506117b382611f23565b602082019050919050565b60006117cb602183611b82565b91506117d682611f4c565b604082019050919050565b60006117ee601883611b82565b91506117f982611f9b565b602082019050919050565b6000611811602583611b82565b915061181c82611fc4565b604082019050919050565b6000611834601983611b82565b915061183f82612013565b602082019050919050565b6000611857602483611b82565b91506118628261203c565b604082019050919050565b600061187a602583611b82565b91506118858261208b565b604082019050919050565b600061189d601f83611b82565b91506118a8826120da565b602082019050919050565b6118bc81611c5b565b82525050565b6118cb81611c65565b82525050565b60006020820190506118e6600083018461164f565b92915050565b6000602082019050611901600083018461165e565b92915050565b60006020820190508181036000830152611921818461166d565b905092915050565b60006020820190508181036000830152611942816116a6565b9050919050565b60006020820190508181036000830152611962816116c9565b9050919050565b60006020820190508181036000830152611982816116ec565b9050919050565b600060208201905081810360008301526119a28161170f565b9050919050565b600060208201905081810360008301526119c281611755565b9050919050565b600060208201905081810360008301526119e281611778565b9050919050565b60006020820190508181036000830152611a028161179b565b9050919050565b60006020820190508181036000830152611a22816117be565b9050919050565b60006020820190508181036000830152611a4281611804565b9050919050565b60006020820190508181036000830152611a628161184a565b9050919050565b60006020820190508181036000830152611a828161186d565b9050919050565b60006020820190508181036000830152611aa281611890565b9050919050565b6000602082019050611abe60008301846118b3565b92915050565b6000606082019050611ad960008301856118b3565b611ae6602083018461164f565b8181036040830152611af781611827565b90509392505050565b6000604082019050611b1560008301846118b3565b8181036020830152611b2681611732565b905092915050565b6000604082019050611b4360008301846118b3565b8181036020830152611b54816117e1565b905092915050565b6000602082019050611b7160008301846118c2565b92915050565b600081519050919050565b600082825260208201905092915050565b6000611b9e82611c5b565b9150611ba983611c5b565b9250827fffffffffffffffffffffffffffffffffffffffffffffffffffffffffffffffff03821115611bde57611bdd611cd7565b5b828201905092915050565b6000611bf482611c5b565b9150611bff83611c5b565b925082821015611c1257611c11611cd7565b5b828203905092915050565b6000611c2882611c3b565b9050919050565b60008115159050919050565b600073ffffffffffffffffffffffffffffffffffffffff82169050919050565b6000819050919050565b600060ff82169050919050565b60005b83811015611c90578082015181840152602081019050611c75565b83811115611c9f576000848401525b50505050565b60006002820490506001821680611cbd57607f821691505b60208210811415611cd157611cd0611d06565b5b50919050565b7f4e487b7100000000000000000000000000000000000000000000000000000000600052601160045260246000fd5b7f4e487b7100000000000000000000000000000000000000000000000000000000600052602260045260246000fd5b6000601f19601f8301169050919050565b7f45524332303a207472616e7366657220746f20746865207a65726f206164647260008201527f6573730000000000000000000000000000000000000000000000000000000000602082015250565b7f45524332303a206275726e20616d6f756e7420657863656564732062616c616e60008201527f6365000000000000000000000000000000000000000000000000000000000000602082015250565b7f4f776e61626c653a206e6577206f776e657220697320746865207a65726f206160008201527f6464726573730000000000000000000000000000000000000000000000000000602082015250565b7f45524332303a20617070726f766520746f20746865207a65726f20616464726560008201527f7373000000000000000000000000000000000000000000000000000000000000602082015250565b7f5375636365737321204e657720746f6b656e2063726561746564000000000000600082015250565b7f45524332303a20696e73756666696369656e7420616c6c6f77616e6365000000600082015250565b7f45524332303a207472616e7366657220616d6f756e742065786365656473206260008201527f616c616e63650000000000000000000000000000000000000000000000000000602082015250565b7f4f776e61626c653a2063616c6c6572206973206e6f7420746865206f776e6572600082015250565b7f45524332303a206275726e2066726f6d20746865207a65726f2061646472657360008201527f7300000000000000000000000000000000000000000000000000000000000000602082015250565b7f537563636573732120546f6b656e2064657374726f7965640000000000000000600082015250565b7f45524332303a207472616e736665722066726f6d20746865207a65726f20616460008201527f6472657373000000000000000000000000000000000000000000000000000000602082015250565b7f53756363657373212046756e6473207472616e73666572656400000000000000600082015250565b7f45524332303a20617070726f76652066726f6d20746865207a65726f2061646460008201527f7265737300000000000000000000000000000000000000000000000000000000602082015250565b7f45524332303a2064656372656173656420616c6c6f77616e63652062656c6f7760008201527f207a65726f000000000000000000000000000000000000000000000000000000602082015250565b7f45524332303a206d696e7420746f20746865207a65726f206164647265737300600082015250565b61210c81611c1d565b811461211757600080fd5b50565b61212381611c5b565b811461212e57600080fd5b5056fea2646970667358221220e2c1ff57cbb27cc9cdbbb48b7fb20c20a0c6f430fa2914f0ea8ce93a74c8178d64736f6c63430008040033",
  "linkReferences": {},
  "deployedLinkReferences": {}
}